:100000000C9464000C948C000C948C000C948C0068
:100010000C948C000C948C000C948C000C948C0030
:100020000C948C000C948C000C948C000C948C0020
:100030000C948C000C948C000C948C000C948C0010
:100040000C94680B0C948C000C94840D0C94C00DD3
:100050000C948C000C948C000C948C000C948C00F0
:100060000C94E1080C948C000000000700020100D1
:100070000003040600000000000000000102040864
:100080001020408001020408102001020408102002
:10009000040404040404040402020202020203032E
:1000A00003030303000000002300260029000000D2
:1000B0000000250028002B0000000000240027007D
:1000C0002A000C06F0077B0E11241FBECFEFD8E0EC
:1000D000DEBFCDBF11E0A0E0B1E0E2EFF2E202C08E
:1000E00005900D92A233B107D9F712E0A2E3B1E077
:1000F00001C01D92A23EB107E1F710E0C8ECD0E0CC
:1001000004C02297FE010E947311C23CD107C9F7B7
:100110000E94DB0C0C9477110C940000CF93DF93BA
:10012000EC01862F6E834F83288791E09D8760E0E6
:100130000E943B0A61E08E810E94730A19861A862A
:100140001B861C86DF91CF910895DF92EF92FF927C
:100150000F931F93CF93DF93EC0161E08E810E9498
:10016000730A6AEF70E080E090E00E94EE0B0E945C
:10017000B20B09851A852B853C85601771078207AC
:10018000930720F419861A861B861C862D8521115B
:1001900011C009851A852B853C85DC01CB01801BAC
:1001A000910BA20BB30B803D9740A105B10510F454
:1001B00081E073C01D860E94B20B69877A878B87A6
:1001C0009C871C821B821A821982188261E08E81B0
:1001D0000E943B0A60E08E810E94730A64E170E035
:1001E00080E090E00E94EE0BF89461E08E810E9426
:1001F000730A88E290E00E94140C60E08E810E94F5
:100200003B0AF12CD12C81E009C0E39481E090E01D
:100210000E94140C8FEFE81204C009C0E12C082FD3
:1002200010E08E810E94AA0A8017910771F38E81D7
:100230000E94AA0A9FEFE916C9F023E02F1590F457
:10024000F0FC10C09D2D969596959695FE01E90FB0
:10025000F11D9081990F908328852E1510F49160DF
:100260009083D394F39495E5F912D8CF789427E24C
:100270002D1590F42C8130E04881898190E0840F25
:10028000911D4A81840F911D4B81840F911D9927E7
:100290002817390709F48CCF80E0DF91CF911F91A7
:1002A0000F91FF90EF90DF900895EF92FF920F93E0
:1002B0001F93CF93DF93EC010E94A500882391F157
:1002C0008F818B3029F070F18551823058F507C04D
:1002D000688170E080E090E00E9403102DC068818A
:1002E00070E080E090E00E94031020E030E040E801
:1002F00053E40E9491107B018C01698170E080E0E1
:1003000090E00E9405109B01AC016E2D7F2D802F87
:10031000912F0E94370F20E030E040E251E40E942C
:100320009B0F0AC061E071E08BE392E00E94030F33
:1003300060E070E080EC9FE7DF91CF911F910F911B
:10034000FF90EF900895CF92DF92EF92FF920F937C
:100350001F93CF93DF938C01C62F0E94A5008823A3
:1003600009F477C0F80187818B3039F008F471C047
:100370008551823008F06DC01DC0F801628170E0C7
:1003800080E090E00E940310B62FA72FF82FE92FEE
:10039000462F572F682F792FCB01BA01CC2309F4B0
:1003A00062C020E030E040E151E46B2F7A2F8F2FC4
:1003B0009E2F37C0F801D2816D2F6F7770E080E0FB
:1003C00090E00E94051020E030E040E853E40E94F5
:1003D00091106B017C01F801638170E080E090E096
:1003E0000E9405109B01AC016C2D7D2D8E2D9F2D43
:1003F0000E94370F20E030E040E251E40E949B0F62
:10040000472F382F292F862F942FA32FB22FBC01CF
:10041000CD01D7FD9058CC2331F120E030E040E110
:1004200051E40E94911020E030E040EA50E40E9444
:100430009B0F20E030E040E052E40E94370F472F4E
:10044000382F292F862F942FA32FB22FBC01CD0137
:100450000AC061E071E08BE392E00E94030F60E06C
:1004600070E080EC9FE7DF91CF911F910F91FF909B
:10047000EF90DF90CF9008951F93CF93DF931F925B
:10048000CDB7DEB7162F8EE691E049830E9495071F
:100490006CE470E08EE691E00E94CE07612F8EE65C
:1004A00091E00E9455074981642F8EE691E00E94F9
:1004B00055078EE691E00F90DF91CF911F910C943C
:1004C000E307462F67E00C943C02462F68E00C944B
:1004D0003C02CF93DF93EC0160E00E94610260E098
:1004E000CE010E94650261E0CE01DF91CF910C94B4
:1004F00061024F925F926F927F928F929F92AF9222
:10050000BF92CF92DF92EF92FF920F931F93CF9300
:10051000DF9300D01F92CDB7DEB75B016A0179018E
:1005200080E48B838A8389830E94B20B2B013C0178
:100530000DC00E94B20B6419750986099709653FC1
:1005400071408105910514F080E06EC08EE691E067
:100550000E94CA061816190664F38EE691E00E94FE
:10056000D30643E050E06CE470E08EE691E00E9438
:10057000C1070E94B20B2B013C018E010F5F1F4F80
:1005800048012DC0C801881999090397D4F40E9425
:10059000B20B2B013C0111C08EE691E00E94D30604
:1005A000F80180830E94B20B6419750986099709C6
:1005B00063337105810591053CF6F8018081803433
:1005C00058F70E94B20B0F5F1F4F64197509860917
:1005D0009709653F7140810591050CF0B5CF8EE616
:1005E00091E00E94CA06892B69F69981892F880FAC
:1005F000880F95FD8D5F85958595F50180839A819E
:10060000892F880F880F95FD8D5F85958595F6015B
:1006100080839B81892F880F880F95FD8D5F85953D
:100620008595F701808381E00F900F900F90DF9107
:10063000CF911F910F91FF90EF90DF90CF90BF90DF
:10064000AF909F908F907F906F905F904F900895A4
:100650008EE691E00C949507CF93DF93EC0168E66A
:1006600070E08EE691E00E94CE0760E08EE691E0B9
:100670000E9455078EE691E00E94E30747E050E0B4
:1006800068E670E08EE691E00E94C1078EE691E098
:100690000E94D306382F3695369536953E70232F17
:1006A000220F220F230F8F709927280F28838EE6A1
:1006B00091E00E94D306282F22952F708F709927E2
:1006C0003AE0239F800D112489838EE691E00E94F9
:1006D000D306382F3695369536953670232F220F50
:1006E000220F230F8F709927280F2A838EE691E01F
:1006F0000E94D306282F22952F708F7099273AE0F9
:10070000239F800D11248B838EE691E00E94D306F7
:10071000282F22952F708F7099273AE0239F800D04
:1007200011248C838EE691E00E94D306282F229517
:100730002F708F7099273AE0239F800D11248D83AD
:100740008EE691E00E94D306282F22952F708F709D
:1007500099273AE0239F800D11248E831F82DF9119
:10076000CF910895CF93DF9322C08EE691E00E944F
:10077000CA06049741F41092480110924701109262
:100780004A0110924901C0914901D0914A018EE677
:1007900091E00E94D306FE01EE0FFF1FE55BFE4FC6
:1007A000918380832196D0934A01C09349018EE6BC
:1007B00091E00E94CA06892BC1F6DF91CF9108957E
:1007C00080914B0190914C01019731F46091460169
:1007D0008EE691E00E94550780914B0190914C016B
:1007E0008330910511F0079741F443E050E06DE349
:1007F00071E08EE691E00E94270780914B01909175
:100800004C01449741F444E050E06DE371E08EE622
:1008100091E00E94270780914B0190914C018E310D
:10082000910511F0889741F449E050E06DE371E0E3
:100830008EE691E00C942707089540E855E260E0C9
:1008400070E08BE392E00E94FB0D64E070E08EE6C6
:1008500091E00E94B20762EB73E08EE691E00E94A5
:10086000E60760EE73E08EE691E00E94EB076BE036
:1008700071E08BE392E00C94220FCF92DF92EF9223
:10088000FF920F931F93CF93DF93CDB7DEB72897D7
:100890000FB6F894DEBF0FBECDBF80914901909195
:1008A0004A01049709F0A9C180914701909148013C
:1008B000892B09F0A2C181E090E0909348018093D8
:1008C000470180914B0190914C01019731F4809147
:1008D0004D010E94AA0A8093460180914B0190919C
:1008E0004C01029731F460914F0180914D010E94BB
:1008F000730A80914B0190914C010397A9F4809168
:100900004D010E94590C90933C0180933B019C0146
:1009100097FF02C021503F4F30933E0160E071E0ED
:100920000E94FF1080933F0180914B0190914C01F8
:10093000049741F460914F017091500180914D01F5
:100940000E947A0C80914B0190914C01059731F4F3
:1009500060914F0180914D010E943B0A80914B01B3
:1009600090914C01079709F042C080914D01909100
:100970004E01809334019093350161E00E943B0A5F
:1009800060E0809134010E94730A82E090E00E944E
:10099000140C61E0809134010E94730A85E090E0BC
:1009A0000E94140C60E0809134010E94730A60E0A0
:1009B000809134010E943B0A20E432E44FE050E091
:1009C00061E0809134010E94D30A2AE330E040E0E4
:1009D00050E00E943511CA01B90120E031E040E049
:1009E00050E00E94351120933E0160933F018091B9
:1009F0004B0190914C01449709F580913A01811186
:100A000007C08DE691E00E94690281E080933A017F
:100A100028E331E047E351E066E371E08DE691E0E1
:100A20000E9479028091360180933E0180913701C6
:100A300080933F01809138018093400180914B0168
:100A400090914C014E9769F580913901811107C051
:100A500085E691E00E94280381E08093390185E6D4
:100A600091E00E942C038091670180933E01809168
:100A7000660180933F0180916501809340018091E0
:100A80006A018093410180916901809342019091B4
:100A90006B0190934301809344018091680180939E
:100AA000450180914B0190914C01889709F059C004
:100AB00080914F0190915001009719F426E04BE08E
:100AC00005C08130910549F426E046E160914D0171
:100AD00087E591E00E948E0008C08230910519F4EC
:100AE00026E045E1F3CF0397D9F360E087E591E095
:100AF0000E94A3016D837E838F83988787E591E0B1
:100B00000E94550169837A838B839C831092330101
:100B100010923201FE01359680E090E0019621911D
:100B2000DC01A35CBE4F2C9384309105BCF384E0C0
:100B300090E090933301809332010196DC01A35C35
:100B4000BE4FE1E0F0E0EC0FFD1FE80FF91F359715
:100B500020812C938830910584F390933301809306
:100B6000320180914B0190914C01C29771F5009137
:100B70004D0110914E010F3F110510F00FEF10E0E5
:100B8000E0904F01F09050018FEFE816F10418F05B
:100B9000EE24EA94F12CC0905101D09052018FEFD5
:100BA000C816D10418F0CC24CA94D12C85E591E064
:100BB0000E944A062C2D4E2D602F85E591E00E9463
:100BC000790685E591E00E94480680914B0190915D
:100BD0004C01C39791F485E591E028960FB6F894FF
:100BE000DEBF0FBECDBFDF91CF911F910F91FF9060
:100BF000EF90DF90CF900C94480628960FB6F894AB
:100C0000DEBF0FBECDBFDF91CF911F910F91FF903F
:100C1000EF90DF90CF90089543E062E085E591E0AA
:100C20000C941206CF93DF93EC01842F68834983E1
:100C300061E00E943B0A61E08881DF91CF910C94D2
:100C40003B0ACF93DF93EC0160E088810E94730A36
:100C500084E190E00E94140C61E088810E94730A94
:100C600084E190E0DF91CF910C94140C1F93CF930B
:100C7000DF93EC0110E260E089810E94730ACE01EB
:100C80000E9421061150B9F7DF91CF911F9108956D
:100C90000C9436060C943606862F8095881F88277C
:100CA000881F880F66FF81600895CF92DF92EF92D0
:100CB000FF921F93CF93DF93EC016A017B0110E257
:100CC000F7FE02C061E001C060E089810E94730A02
:100CD000CC0CDD1CEE1CFF1CCE010E942106115025
:100CE00079F7DF91CF911F91FF90EF90DF90CF9038
:100CF0000895AF92BF92CF92DF92EF92FF920F933F
:100D00001F93CF93DF931F92CDB7DEB75C01162FF1
:100D1000F42E622F29830E944C06C82E6F2DC50128
:100D20000E944C06082F612FC5010E944C06412FDE
:100D300050E060E070E0706C5F292981622BD12C5B
:100D4000E12CF12C9CE1CC0CDD1CEE1CFF1C9A95D7
:100D5000D1F74C295D296E297F2910E020E030E091
:100D6000EAE1000F111F221F331FEA95D1F7402B34
:100D7000512B622B732B782BC5010F90DF91CF91F4
:100D80001F910F91FF90EF90DF90CF90BF90AF90A9
:100D90000C9455062091A20130E08091A301281BFC
:100DA0003109C90108958091A3019091A201891789
:100DB00050F4E82FF0E0EC55FE4F208130E08F5FDB
:100DC0008093A30102C02FEF3FEFC9010895E09186
:100DD000A3018091A201E81730F4F0E0EC55FE4F3A
:100DE000208130E002C02FEF3FEFC9010895089540
:100DF000E0917A01F0917B013097E1F03091A3010D
:100E00002091A2013217B0F040E009C0DC01A20F2E
:100E1000B31F5C91D901AC55BE4F5C934F5F242F3B
:100E200030E02617370794F31092A3016093A201D4
:100E3000CB0109940895E0917C01F0917D013097F8
:100E400029F01092800110927F0109940895CF92A9
:100E5000DF92EF92FF920F931F93CF93DF937C016A
:100E6000CB018A0120917E01222391F0EB016B01DD
:100E7000C40ED51E09C06991D701ED91FC91019076
:100E8000F081E02DC7010995CC15DD05A1F703C060
:100E9000642F0E94AE08C801DF91CF911F910F917E
:100EA000FF90EF90DF90CF900895CF93DF931F9244
:100EB000CDB7DEB7698320917E012223D1F0209146
:100EC0007F01203240F021E030E0FC0133832283B7
:100ED00020E030E015C080918001E82FF0E0EF576E
:100EE000FE4F998190838F5F8093800180937F0173
:100EF00005C061E0CE0101960E94AE0821E030E01D
:100F0000C9010F90DF91CF910895FC0113821282E5
:100F100048EE53E060E070E0448355836683778356
:100F200086E191E09183808308951092A30110924D
:100F3000A2011092800110927F010C94F407CF93CC
:100F4000DF93EC01862F0E9412088BE197E00E944C
:100F5000CC0888EF96E00E94C708CE01DF91CF91C0
:100F60000C9495070C949F07862F413208F040E2BD
:100F700064EA71E00E9416081092A3018093A20116
:100F8000089521E00C94B40781E080937E01609382
:100F9000A1011092800110927F0108950C94C40762
:100FA0000F93062F21E040917F0161E871E080916D
:100FB000A1010E945B081092800110927F011092A3
:100FC0007E010F91089561E00C94D00770937B012E
:100FD00060937A01089570937D0160937C01089578
:100FE0008EE691E00C9485071092CD0181E080930C
:100FF000CB011092CA0161E082E10E94730A61E0B4
:1010000083E10E94730AE9EBF0E080818E7F8083A8
:1010100080818D7F808388E48093B80085E480930D
:10102000BC000895880F8093BA000895413208F0FB
:101030003FC09091CD019111FCCF91E09093CD01F3
:101040002093CB012FEF2093C4011092C901242FCC
:1010500021502093C8019093CC019091CC01880F2E
:10106000892B8093CC018091CA01813041F4109288
:10107000CA018091CC018093BB0085EC01C085EE54
:101080008093BC008091CD018130E1F38091C90152
:10109000841710F44091C9012EEC31E0FB01D90115
:1010A00002C08D9181938A2F821B8417D0F301C0D7
:1010B00040E0842F08950F93413208F046C090918C
:1010C000CD019111FCCF92E09093CD010093CB0123
:1010D0009FEF9093C4011092C9014093C801FB0196
:1010E0006EEC71E0DB0102C091919D939A2F961BEB
:1010F0009417D0F31092CC019091CC01880F892BDA
:101100008093CC018091CA01813041F41092CA01D0
:101110008091CC018093BB0085EC01C085EE80936B
:10112000BC00222321F08091CD018230E1F3809137
:10113000C4018F3F61F08091C401803251F08091F1
:10114000C401803341F483E007C081E005C080E042
:1011500003C082E001C084E00F910895613298F4E9
:101160002091CD01243089F46093C601FC018EEEFC
:1011700091E0DC0102C021912D932A2F281B261714
:10118000D0F380E0089581E0089582E0089590937F
:101190000F0280930E020895909311028093100223
:1011A000089585ED8093BC008091BC0084FDFCCF48
:1011B0001092CD01089585EC8093BC001092CD0172
:1011C00008951F920F920FB60F9211242F933F9301
:1011D0004F935F936F937F938F939F93AF93BF933F
:1011E000EF93FF938091B900887F803609F49FC008
:1011F00058F5883209F45BC090F4803109F452C08C
:1012000038F4882309F4F8C0883009F0F9C04AC0DE
:10121000883109F44CC0803209F0F2C05CC08034DF
:1012200009F46BC038F4803309F455C0883309F0F1
:10123000E7C054C0803509F454C0883509F462C051
:10124000883409F0DDC0DAC0883909F4CBC0A8F4CD
:10125000883709F46CC038F4883609F468C08037E0
:1012600009F0CEC064C0883809F4BCC0803909F4E4
:1012700064C0803809F0C4C060C0803B09F48AC0F3
:1012800038F4803A09F46BC0883A09F0B9C082C0DA
:10129000803C09F4ABC0883C09F4A8C0883B09F045
:1012A000AFC08DC08091CC018093BB0012C09091E3
:1012B000C9018091C801981788F58091C901E82F6C
:1012C000F0E0E253FE4F90819093BB008F5F8093DC
:1012D000C90185EC88C08093C40190C08093C4018B
:1012E00056C08091C9019091BB00E82FF0E0E25315
:1012F000FE4F90838F5F8093C9019091C9018091C7
:10130000C8016DC08091C9019091BB00E82FF0E049
:10131000E253FE4F90838F5F8093C9018091CB0190
:1013200081116CC081E08093CA0184EA60C083E0CF
:101330008093CD011092C501CCCF8091C501803240
:1013400008F050C08091C5019091BB00E82FF0E0FB
:10135000EE5EFD4F90838F5F8093C501BACF809181
:10136000C501803230F4E091C501F0E0EE5EFD4F42
:1013700010820E94D1086091C501E0910E02F091A7
:101380000F0270E082E192E009951092C5010E947F
:10139000DB0836C084E08093CD011092C701109223
:1013A000C601E0911002F091110209958091C601E9
:1013B000811105C081E08093C6011092EE018091F9
:1013C000C701E82FF0E0E251FE4F90819093BB00FF
:1013D0008F5F8093C7019091C7018091C6019817D4
:1013E00008F477CF85E88093BC000AC085EC809331
:1013F000BC001092CD0104C01092C4010E94D1081B
:10140000FF91EF91BF91AF919F918F917F916F91DC
:101410005F914F913F912F910F900FBE0F901F90B2
:101420001895833069F028F48130A1F0823011F5ED
:1014300014C08630B1F08730C1F08430D9F404C0D4
:10144000809180008F7703C0809180008F7D809392
:101450008000089584B58F7702C084B58F7D84BDE8
:1014600008958091B0008F7703C08091B0008F7D88
:101470008093B0000895CF93DF9390E0FC01E4588F
:10148000FF4F4491FC01E057FF4F8491882341F1C5
:1014900090E0880F991FFC01E854FF4F259134918B
:1014A000D90182559F4FFC0185919491C82FD92F66
:1014B0009FB7F8948C91611106C0409584238C935A
:1014C0008881842308C0623041F4242F2095822330
:1014D0008C938881842B888302C0842B8C939FBF3C
:1014E000DF91CF9108950F931F93CF93DF931F92B6
:1014F000CDB7DEB7282F30E0F901E859FF4F8491CE
:10150000F901E458FF4F1491F901E057FF4F04919E
:101510000023D1F0882321F069830E94110A698198
:10152000E02FF0E0EE0FFF1FE255FF4F8591949101
:10153000DC019FB7F8948C91611103C01095812351
:1015400001C0812B8C939FBF0F90DF91CF911F9192
:101550000F910895CF93DF93282F30E0F901E859D8
:10156000FF4F8491F901E458FF4FD491F901E057FE
:10157000FF4FC491CC2389F081110E94110AEC2FF6
:10158000F0E0EE0FFF1FEC55FF4F85919491DC01C9
:101590008C918D2321E030E011F420E030E0C9018E
:1015A000DF91CF9108958F929F92AF92BF92CF9289
:1015B000DF92EF92FF920F931F93CF93DF9390E010
:1015C000FC01E458FF4FD491FC01E057FF4F7491A8
:1015D000611102C0C0E001C0CD2FDA01C901BF70A6
:1015E000672F70E0660F771F6C557F4F812C912C11
:1015F0005401FB010591149110C0C12CD12C76012E
:10160000C394C80CD91CEA1CFB1C88169906AA06B0
:10161000BB0609F44BC046015701F801E081ED23F8
:10162000EC1759F310C0C12CD12C7601C394C80C0F
:10163000D91CEA1CFB1C88169906AA06BB06B1F148
:101640004601570103C0FB0105911491F801E081A7
:10165000ED23EC13E8CF88199909AA09BB0920E00A
:1016600030E0A901FB016591749109C02817390781
:101670004A075B07D9F02F5F3F4F4F4F5F4FFB018A
:10168000E081ED23EC1791F3A5E1B0E00E94F410A6
:101690008B019C01005F1F4F2F4F3F4F84E0369519
:1016A0002795179507958A95D1F703C000E010E0BC
:1016B0009801B801C901DF91CF911F910F91FF905F
:1016C000EF90DF90CF90BF90AF909F908F90089554
:1016D0001F920F920FB60F9211242F933F938F9367
:1016E0009F93AF93BF938091320290913302A09168
:1016F0003402B091350230913A02232F2D5F2D37FD
:1017000020F40196A11DB11D05C0232F2A57029672
:10171000A11DB11D20933A028093320290933302AF
:10172000A0933402B0933502809136029091370233
:10173000A0913802B09139020196A11DB11D80938C
:10174000360290933702A0933802B0933902BF91CA
:10175000AF919F918F913F912F910F900FBE0F905E
:101760001F9018950F931F938FB7F8940091320232
:101770001091330220913402309135028FBFB801AD
:10178000C9011F910F9108950F931F939FB7F8946C
:1017900000913602109137022091380230913902BF
:1017A00086B5A89B06C08F3F21F00F5F1F4F2F4FBC
:1017B0003F4F9FBF322F212F102F0027080F111DE1
:1017C000211D311D42E0000F111F221F331F4A95BA
:1017D000D1F7B801C9011F910F910895CF92DF92FF
:1017E000EF92FF92CF93DF936B017C010E94C40BB9
:1017F000EB010EC00E94C40B6C1B7D0B683E734056
:1018000038F081E0C81AD108E108F108C851DC4F6E
:10181000C114D104E104F10469F7DF91CF91FF9085
:10182000EF90DF90CF900895019739F0880F991FBE
:10183000880F991F02970197F1F70895789484B55E
:10184000826084BD84B5816084BD85B5826085BDBC
:1018500085B5816085BDEEE6F0E0808181608083A2
:10186000E1E8F0E010828081826080838081816085
:101870008083E0E8F0E0808181608083E1EBF0E04C
:10188000808184608083E0EBF0E0808181608083F0
:10189000EAE7F0E0808184608083808182608083D9
:1018A0008081816080838081806880831092C10004
:1018B00008958E3008F08E5087702091000140E42A
:1018C000249F90011124822B80937C0080917A00C8
:1018D000806480937A0080917A0086FDFCCF20910D
:1018E000780030917900932F80E0AC01422B9A016F
:1018F000C90108951F93CF93DF93182FEB0161E087
:101900000E943B0A209711F460E004C0CF3FD1054C
:1019100039F461E0812FDF91CF911F910C94730A0C
:10192000E12FF0E0E859FF4FE491E330B9F028F4FB
:10193000E13051F0E230B1F50CC0E63019F1E7309A
:1019400049F1E43079F514C084B5806884BDC7BD21
:101950002EC084B5806284BDC8BD29C0809180003E
:10196000806880938000D0938900C09388001FC056
:1019700080918000806280938000D0938B00C09320
:101980008A0015C08091B00080688093B000C09339
:10199000B3000DC08091B00080628093B000C0930E
:1019A000B40005C0C038D1050CF0B3CFADCFDF9186
:1019B000CF911F9108950E941E0C0E941D04C7EB39
:1019C000DDE00E943D042097E1F30E94B70DF9CFBE
:1019D000FC0184859585FC01E05CFF4F208131810D
:1019E000FC01EE5BFF4F80819181281B390B2F7327
:1019F0003327C9010895FC0184859585FC01E05CCD
:101A0000FF4F40815181FC01EE5BFF4F208131810E
:101A10004217530741F00190F081E02DE80FF91FC4
:101A2000208130E002C02FEF3FEFC9010895FC0193
:101A300084859585FC01E05CFF4F40815181FC016C
:101A4000EE5BFF4F208131814217530781F0A08167
:101A5000B181A80FB91F8C91208131812F5F3F4F39
:101A60002F73332731832083282F30E002C02FEFDC
:101A70003FEFC9010895FC0186859785FC01E05C74
:101A8000FF4FDC01AE5BBF4F408151812D913C91F6
:101A9000119742175307C1F70895CF93DF93FC01C5
:101AA00086859785DC01A05CBF4F2D913C911197F5
:101AB0002F5F3F4F2F733327EC01CE5BDF4F488101
:101AC000598124173507D9F30D90BC91A02DA80F8B
:101AD000B91F6C93A685B785A05CBF4F11963C9348
:101AE0002E93A689B7892C9181E090E0058C02C0E5
:101AF000880F991F0A94E2F7282B2C9381E090E03D
:101B0000DF91CF91089508951F920F920FB60F9213
:101B100011242F933F934F938F939F93EF93FF93B2
:101B20004091C6008091DE029091DF0201968F7392
:101B300099272091E0023091E1028217930759F032
:101B4000E091DE02F091DF02E256FD4F4083909378
:101B5000DF028093DE02FF91EF919F918F914F9171
:101B60003F912F910F900FBE0F901F9018958BE310
:101B700092E00E94E80C892B11F00C94830D0895DB
:101B80001F920F920FB60F9211242F933F938F93B2
:101B90009F93EF93FF9320919A0230919B02809143
:101BA0009C0290919D022817390731F48091C10061
:101BB0008F7D8093C10014C0E0919C02F0919D0242
:101BC000E65AFD4F208180919C0290919D020196E2
:101BD0008F73992790939D0280939C022093C60057
:101BE000FF91EF919F918F913F912F910F900FBE99
:101BF0000F901F901895CF92DF92EF92FF92CF93A4
:101C0000DF93EC016A017B01411581EE5807610504
:101C10007105F9F0EC89FD8981E090E00E8C02C03D
:101C2000880F991F0A94E2F7808360E079E08DE3E2
:101C300090E0A70196010E9413112150310941093A
:101C400051095695479537952795211580E1380715
:101C500098F0EC89FD89108260E874E88EE190E0EC
:101C6000A70196010E941311215031094109510920
:101C70005695479537952795E889F9893083EA89FC
:101C8000FB892083EE89FF89408181E090E09C01FF
:101C90000A8C02C0220F331F0A94E2F7422B4083C2
:101CA000EE89FF8940819C010B8C02C0220F331FFB
:101CB0000A94E2F7422B4083EE89FF8940819C0120
:101CC0000C8C02C0220F331F0A94E2F7422B408390
:101CD000EE89FF8920810D8C02C0880F991F0A941C
:101CE000E2F7809582238083DF91CF91FF90EF9080
:101CF000DF90CF90089510923E0210923D0288EE40
:101D000093E0A0E0B0E080933F0290934002A09364
:101D10004102B093420286E291E090933C028093AC
:101D20003B028EE992E090934802809347028AE555
:101D300092E090934A028093490285EC90E0909360
:101D40004C0280934B0284EC90E090934E0280937F
:101D50004D0280EC90E09093500280934F0281EC12
:101D600090E0909352028093510286EC90E0909321
:101D700054028093530284E08093550283E0809361
:101D8000560287E08093570285E08093580281E0F5
:101D9000809359020895CF92DF92EF92FF920F93B2
:101DA0001F93CF93DF936C01EB017A01E60EF71ED0
:101DB00000E010E00BC06991D601ED91FC9101901B
:101DC000F081E02DC6010995080F191FCE15DF051A
:101DD00091F7C801DF91CF911F910F91FF90EF9084
:101DE000DF90CF900895DB010D900020E9F7AD0161
:101DF00041505109461B570BDC01ED91FC910280CB
:101E0000F381E02D09940C94F30EDC01ED91FC912B
:101E10000190F081E02D09940F931F93CF93DF93EE
:101E2000EC016DE00E94050F8C016AE0CE010E947A
:101E3000050F9C01200F311FC901DF91CF911F9128
:101E40000F9108950F931F93CF93DF93EC010E949E
:101E5000F30E8C01CE010E940C0F9801280F391F40
:101E6000C901DF91CF911F910F9108955058BB2761
:101E7000AA270ED01CC10DD130F012D120F031F4C0
:101E80009F3F11F41EF402C10EF4E095E7FBF8C089
:101E9000E92F1ED180F3BA176207730784079507ED
:101EA00018F071F49EF536C10EF4E0950B2EBA2FA2
:101EB000A02D0B01B90190010C01CA01A001112450
:101EC000FF27591B99F0593F50F4503E68F11A16FC
:101ED000F040A22F232F342F4427585FF3CF46958D
:101EE00037952795A795F0405395C9F77EF41F16AF
:101EF000BA0B620B730B840BBAF09150A1F0FF0F79
:101F0000BB1F661F771F881FC2F70EC0BA0F621F64
:101F1000731F841F48F4879577956795B795F79554
:101F20009E3F08F0B3CF9395880F08F09927EE0FE6
:101F30009795879508950CD0BAC0B2D040F0A9D03B
:101F400030F021F45F3F19F09BC05111E4C09EC0F6
:101F5000BFD098F39923C9F35523B1F3951B550BC3
:101F6000BB27AA2762177307840738F09F5F5F4F6C
:101F7000220F331F441FAA1FA9F333D00E2E3AF0AD
:101F8000E0E830D091505040E695001CCAF729D0C7
:101F9000FE2F27D0660F771F881FBB1F2617370716
:101FA0004807AB07B0E809F0BB0B802DBF01FF2746
:101FB00093585F4F2AF09E3F510568F061C0ABC057
:101FC0005F3FECF3983EDCF3869577956795B79580
:101FD000F7959F5FC9F7880F911D9695879597F99B
:101FE0000895E1E0660F771F881FBB1F6217730714
:101FF0008407BA0720F0621B730B840BBA0BEE1F29
:1020000088F7E0950895E89409C097FB3EF4909511
:102010008095709561957F4F8F4F9F4F9923A9F0C1
:10202000F92F96E9BB279395F69587957795679550
:10203000B795F111F8CFFAF4BB0F11F460FF1BC094
:102040006F5F7F4F8F4F9F4F16C0882311F096E927
:1020500011C0772321F09EE8872F762F05C06623D5
:1020600071F096E8862F70E060E02AF09A95660F8E
:10207000771F881FDAF7880F9695879597F9089547
:1020800097F99F6780E870E060E008959FEF80EC2B
:10209000089500240A9416161706180609060895CE
:1020A00000240A9412161306140605060895092E34
:1020B0000394000C11F4882352F0BB0F40F4BF2BA3
:1020C00011F460FF04C06F5F7F4F8F4F9F4F0895E3
:1020D00057FD9058440F551F59F05F3F71F04795D9
:1020E000880F97FB991F61F09F3F79F087950895BE
:1020F000121613061406551FF2CF4695F1DF08C0DD
:10210000161617061806991FF1CF869571056105F9
:1021100008940895E894BB2766277727CB0197F9A1
:1021200008950BD0C4CFB5DF28F0BADF18F095239F
:1021300009F0A6CFABCF1124EECFCADFA0F3959F55
:10214000D1F3950F50E0551F629FF001729FBB279E
:10215000F00DB11D639FAA27F00DB11DAA1F649F4A
:102160006627B00DA11D661F829F2227B00DA11DFD
:10217000621F739FB00DA11D621F839FA00D611D83
:10218000221F749F3327A00D611D231F849F600DA4
:10219000211D822F762F6A2F11249F5750408AF0DD
:1021A000E1F088234AF0EE0FFF1FBB1F661F771F69
:1021B000881F91505040A9F79E3F510570F060CFA5
:1021C000AACF5F3FECF3983EDCF386957795679551
:1021D000B795F795E7959F5FC1F7FE2B880F911D87
:1021E0009695879597F908950E945111A59F900D96
:1021F000B49F900DA49F800D911D1124089597FB0D
:10220000072E16F4009407D077FD09D00E945D11C7
:1022100007FC05D03EF4909581959F4F08957095E9
:1022200061957F4F0895A1E21A2EAA1BBB1BFD01E9
:102230000DC0AA1FBB1FEE1FFF1FA217B307E407A5
:10224000F50720F0A21BB30BE40BF50B661F771FFD
:10225000881F991F1A9469F76095709580959095DD
:102260009B01AC01BD01CF010895052E97FB16F42B
:10227000009407D057FD0DD00E94131107FC09D020
:102280007EF490958095709561957F4F8F4F9F4F0D
:10229000089550954095309521953F4F4F4F5F4F92
:1022A0000895A29FB001B39FC001A39F01D0B29F28
:1022B000700D811D1124911D0895AA1BBB1B51E1B6
:1022C00007C0AA1FBB1FA617B70710F0A61BB70BA6
:1022D000881F991F5A95A9F780959095BC01CD014B
:1022E0000895EE0FFF1F0590F491E02D0994F894E6
:0222F000FFCF1E
:1022F2000152656164206661696C005265616479AE
:1023020021000000000055072707CA06D306E7068A
:10231200F706000000004D0DCB0EE80C170DFB0C6C
:022322003B0D71
:00000001FF
